:10000000DDC0ECC0EBC0F2C0E9C0E8C0E7C0E6C0AC
:10001000E5C0E4C0E3C0E2C0E1C0E0C0DFC0DEC0D4
:10002000DDC0DCC0DBC018C51CC520C524C528C583
:100030002CC508C50CC52EC5F1C604C71AC760C7B4
:10004000D4C7FFC733C8022500A5050000920102EE
:1000500005000600000003030205009500000042B1
:10006000010326000A002500C4020326000A00013D
:1000700000BE02030A00A505AA01BC02030A00A5EE
:10008000056A01BA02020A00AA0100009402020AEB
:10009000006A0100009202022A00A5050000820108
:1000A0000315001A0025005C010315001A00010069
:1000B0005601021500260000004401020200A505B9
:1000C000000071010302000A002500510103020033
:1000D0000A0001004B01025600A5050000C90202FA
:1000E0001A00A505000061012D56092F590230AAFA
:1000F0000231AA01326A01335A01345601355501E1
:1001000036550237950238A50239A9023FA50541A7
:1001100006004295004399004425004501004659D8
:10012000004729004855004905004A6A004B26004F
:100130004C65004D0A004E09004F2A0050690051DD
:10014000A6005219005315005402005516005656C9
:1001500000571A00589600599A005AA500610600E7
:100160006295006399006425006501006659006787
:1001700029006855006905006A6A006B26006C65F5
:10018000006D0A006E09006F2A0070690071A600F8
:100190007219007315007402007516007656007708
:1001A0001A00789600799A007AA5005633373636C9
:1001B0004D206279204446355743000011241FBE6C
:1001C000CFE5D4E0DEBFCDBF20E0A4E6B0E001C0C3
:1001D0001D92A63CB207E1F746D928CA11CFF89480
:1001E00080917A0090917B00789408956F937F932B
:1001F0008F939F936FB76F9380917A0090917B005C
:10020000019680937A0090937B0060B36095809113
:10021000BF00803019F061FB660F60F96370609376
:10022000BD00709160007395743019F560B3882734
:1002300070916300661F77957093630009F480687E
:1002400070916200661F77957093620009F4806474
:1002500070916100661F77957093610009F4806268
:10026000682F70917C00672760937D0080937C00ED
:100270007727709360006F916FBF9F918F917F91EF
:100280006F91189580E0089581E08093BE001092F0
:10029000BF0080E0089581E08093BC00A2D780E099
:1002A00008951092BC009DD780E0089581E080936E
:1002B000BF00FFD280E008951092BF00FAD280E024
:1002C000089580917F0090918000880F991F880F7A
:1002D000991F3BD880917E0062E090E0E0D380E0FF
:1002E000089580917F0090918000880F991F880F5A
:1002F000991F2BD863E08091C0009091C100CFD3AB
:1003000080E0089580917F0090918000880F991F70
:10031000880F991F1AD88091BB0062E090E0BFD38C
:1003200080E00895CF93DF93C091C200D091C300C5
:1003300080917F0090918000880F991F880F991FEE
:1003400004D89E01A8EEB3E024D920EA3FE040E0C3
:1003500050E0FDD863E0C901A2D380E0DF91CF91E6
:1003600008953F924F925F926F927F928F929F92E9
:10037000AF92BF92CF92DF92EF92FF920F931F93B3
:10038000CF93DF93CDB7DEB7C85CD1090FB6F89431
:10039000DEBF0FBECDBF382ECE0101963C0188ECEA
:1003A000D3011D928A95E9F71ADF7C01A0908100A4
:1003B000B0908200FDD4450196948794C12CD12C35
:1003C000512C4424439480917C00803879F507DFD8
:1003D0008E199F0980349F4108F099C0889511D5E6
:1003E00080918600882379F390918800092F10E08E
:1003F0000F5F1F4F9801220F331F020F131F0A5761
:100400001F4F442069F1F8012081222321F0522E50
:10041000C180D280412C9F5F9F7090938800815053
:100420008093860080917C00803889F282E0C853F6
:10043000DF4F0FB6F894DEBF0FBECDBFDF91CF9177
:100440001F910F91FF90EF90DF90CF90BF90AF90F2
:100450009F908F907F906F905F904F903F90089506
:10046000D8012C912515B9F2BADE7C01B8DE9401D1
:100470002C193D09820F931FB50155D8462F6623CD
:10048000D9F1693008F041C0862F90E00197880FBC
:10049000991F852929813A812C38F1E03F07C8F05E
:1004A000C5CF8295807F9081892B80832F5F3F4FBE
:1004B000461B01F1642F493008F068E0862F90E078
:1004C0000197880F991F85292C3891E0390709F485
:1004D000ADCFF901F695E795A3E0B0E0AC0FBD1FF5
:1004E000EA0FFB1F20FDDDCF8F7080832F5F3F4F12
:1004F000461B01F73A832983F8015080C180D280DE
:10050000909188008091860086CF68E0BDCF50D45E
:1005100089819A81892B09F489CFB301832D1BD35B
:1005200080E085CF82E01DCF81E01BCF8093B900B2
:100530001092C5001092C40081E08093BA0008C0F8
:1005400080917C00803851F48091BD00811106C0FB
:1005500088952AD38091BA008111F2CF07D4809177
:100560007F0090918000880F991F880F991FEDD60A
:1005700080E0089582E0DACF81E0D8CF81E08093F7
:1005800085002FD480E00895109285002AD480E061
:100590000895CF93DF9380917F0090918000880F22
:1005A000991F880F991FD1D6CBEAD1E007C0BDD1E2
:1005B000D8D180917C00219687FF14C0FE018491E0
:1005C0008823A1F0803299F780917F00909180007C
:1005D000880F991F880F991FB8D680917C002196AB
:1005E00087FDECCF82E0DF91CF91089580917F006D
:1005F00090918000880F991F880F991FA6D680E0E0
:10060000DF91CF91089580E00895CF92DF92EF922D
:10061000FF920F931F93CF93DF93CDB7DEB72B9746
:100620000FB6F894DEBF0FBECDBFC2D380917C0061
:10063000803809F060C08091BE0081115CC010E07C
:100640000AC0889580917C00803809F052C0809162
:10065000BE0081114EC0D5D3882399F3FF24F394B3
:10066000F10EC4D3612F70E0FB01EE0FFF1F21E0FC
:1006700030E02C0F3D1FE20FF31F91838083FF209A
:1006800089F106E410E06F5F7F4F660F771F620FFE
:10069000731FC12CD12C32E03B87F801E490EF149A
:1006A000A8F0DE011196C80101964D915D91FC0103
:1006B000259134914217530749F40296A617B707BC
:1006C000A1F7FE1409F47FC021E02B873FEFC31A86
:1006D000D30A075F1F4F42E1C416D104F1F65B85D0
:1006E0005230C1F01F2D889580917C00803809F42C
:1006F000AECF111159C02B960FB6F894DEBF0FBEC6
:10070000CDBFDF91CF911F910F91FF90EF90DF90C0
:10071000CF90089509811A810532110561F00A32DE
:10072000110549F00230110531F00A31110519F0B7
:1007300095D610E086CF81E0F816A1F28B819C81DE
:10074000B8D1D82E87FDF4CF92E0F91659F28D81F9
:100750009E81AFD1E82E87FDEBCFE3E0FE1609F4D2
:100760004BC08F819885A5D187FDE2CF4E2D5AE0F1
:100770004502900111249D2DE4E69E02200D311DBD
:100780001124A901480F511D87FD5A95CA019A01EC
:100790000532110509F443C0245F31402D32314048
:1007A00038F60AD602D620C02B960FB6F894DEBFD4
:1007B0000FBECDBFDF91CF911F910F91FF90EF90B2
:1007C000DF90CF904BC6F601EE0FFF1FEE0FFF1F1D
:1007D000EE0FFF1FEC0DFD1DE35BFF4F8591949124
:1007E000FC010995811103C034D610E02ACF813075
:1007F00009F09ECF1F2D77CFFAE0DF9E800D1124E8
:100800000A321105E1F00A31110509F06BCF94EFBE
:10081000980F9D3108F08CCF56D04BD0E5CF2253A6
:1008200031092F35314008F083CF880F991F880F89
:10083000991F9093C3008093C200D3D4D5CF9BEF70
:10084000980F9B3008F074CF8093BB00CAD4CCCFF4
:1008500064E181E090E096D280937E00682F70E0A2
:1008600080EC92E160D67093820060938100CB01AE
:10087000880F991F860F971F9093840080938300A1
:100880007093800060937F0088958091BD0081FF08
:1008900005C081E08093BE001092BF0060E080E060
:1008A00090E070D291E0811101C090E09093BF0080
:1008B000089560917E0081E090E093D66091BF0042
:1008C00080E090E08EC680937E00682F70E080EC20
:1008D00092E129D6EFE7F0E073836283CB01880FC2
:1008E000991F860F971F9583848371836083089572
:1008F00049EE50E020E030E007C02F5F3F4F4D5FF2
:100900005F4F2134310579F0FA01659174916817D0
:10091000790799F7F901EE0FFF1FE20FF31FE85176
:10092000FF4F849108958FEF0895E8EEF0E020E006
:1009300030E006C02F5F3F4F33962134310571F010
:1009400094919813F7CFF901EE0FFF1FE20FF31FF9
:10095000E751FF4F25913491C901089580E090E05F
:100960000895CF93DF93EC01892BD1F42BC002972C
:1009700089F48FB58F7380648FBD809183009091CF
:100980008400E3D48FB58F738FBD80917F009091E9
:100990008000DBD4CC0FDD1FCC0FDD1F209791F042
:1009A000CE0184E0989F812D9927112481309105F3
:1009B000F1F68FB58F7380648FBD80918100909127
:1009C0008200DFCF80917F0090918000880F991F77
:1009D000DF91CF91BAC4CF93DF93EC01623070F016
:1009E0004FEF460F9C01ADECBCECD3D5642F969530
:1009F00087959695879596958795EDDF9E01ADEC49
:100A0000BCECC7D5969587959695879596958795CD
:100A10009C01220F331F880F991F880F991F880F81
:100A2000991F820F931FFE01E81BF90B3197E930E4
:100A3000F10528F08AEA92E0DF91CF9192CFED5E46
:100A4000FF4F099485E992E0DF91CF918ACF85EA43
:100A500092E0DF91CF9185CF8AEA91E0DF91CF914B
:100A600080CF8AE691E0DF91CF917BCF8AE591E05C
:100A7000DF91CF9176CF86E591E0DF91CF9171CF75
:100A800085E591E0DF91CF916CCF85E592E0DF9134
:100A9000CF9167CF89EA92E0DF91CF9162CF9BDF60
:100AA00080917F0090918000880F991F880F991F77
:100AB0004CC48A3A21E09207B9F170F0853A22E0FD
:100AC000920781F1B8F4853522E0920701F185396A
:100AD000924021F587E00895863521E0920701F1E3
:100AE000C0F08A3521E0920771F08A369140B1F466
:100AF00082E00895893A22E0920739F08A3A9240DA
:100B000069F480E0089583E0089589E0089586E01F
:100B100008958535914011F485E008958FEF08958B
:100B200084E0089588E0089581E00895CF93DF93ED
:100B300060E070E082E090E02DD1C8E6D0E09983DB
:100B4000888360E070E08AEC90E024D19B838A8304
:100B5000DF91CF9108950F931F93CF93DF938B0174
:100B6000C82FD0E02197FB01408151814F5F5F4F3B
:100B7000569547954E5F5F4F88EC8C9FB0018D9FD7
:100B8000700D11246E5F7F4FC8011CD5CC0FDD1F87
:100B9000C859DF4FF8018081918199838883DF9163
:100BA000CF911F910F910895CF93DF938091BA0059
:100BB0008230A1F18330F1F0813019F0DF91CF91D3
:100BC00008952091B90030E0215031094091C400CE
:100BD0005091C500F901EE0FFF1FE859FF4F8081CA
:100BE00091814817590708F454C01092BA00DF9158
:100BF000CF910895C0916400D0916500F0DA8C1B0C
:100C00009D0B209166003091670082179307B0F228
:100C100081E08093BA00DF91CF910895C091640084
:100C2000D0916500DCDA8C1B9D0B20916600309121
:100C300067008217930710F2D2DA40918700242FC1
:100C400030E0B9016F5F7F4FFB01EE0FFF1F6E0FAA
:100C50007F1FFB01EA57FF4F1082F901EE0FFF1FC4
:100C60002E0F3F1FF901EA57FF4F958384834F5F93
:100C70004F704093870080918600803118F48F5F19
:100C8000809386008FB58F738FBD81E08093BA000B
:100C900095CF68EC629FC001639F900D11248C5F1B
:100CA0009F4F5695479562E2840F951F6BD0209118
:100CB000C4003091C500C82F20FD26C0CF702F5F23
:100CC0003F4F3093C5002093C4002C2F269530E071
:100CD0002F5F3F4F4091810050918200249FC001BF
:100CE000259F900D349F900D112490936700809361
:100CF000660075DA9093650080936400C0FD07C0BC
:100D000083E08093BA005ACFC295CF70D8CF67DA0C
:100D100040918700242F30E0B9016F5F7F4FFB01C6
:100D2000EE0FFF1F6E0F7F1FFB01EA57FF4F51E0D1
:100D30005083F901EE0FFF1F2E0F3F1FF901EA57F5
:100D4000FF4F958384834F5F4F704093870080915E
:100D50008600803118F48F5F809386008FB58F7383
:100D600080648FBD82E08093BA0028CF1092B900D2
:100D70001092C5001092C4001092BA008FB58F7304
:100D80008FBD0895CF93C62F10D48F3F09F48C2FB9
:100D9000CF910895CF93DF93D62FC72F0ED48F3FD7
:100DA0002FEF920711F48D2F9C2FDF91CF91089593
:100DB00061E082E991E0E6DF91E0811101C090E01D
:100DC0009093850010928600109287001092880000
:100DD0001092750010926E0010926D0010926C00CF
:100DE00008956091850082E991E0FBC380916D00D8
:100DF00090916E0010926E0010926D0010926C0037
:100E00000895CF93DF93E09175008E2F90E08730A7
:100E1000910558F4FC01E45EFF4F09948091BE00F7
:100E2000882341F085E08093750080916C00DF910C
:100E3000CF910895D4D9909372008093710081E08E
:100E40008093750080916D0090916E00892B09F060
:100E500070C180916C009091BD0090FD63C1909134
:100E6000BD0091FFE4CF92E09093740090937500E1
:100E7000DECF8FB58F7380648FBDB1D9409187006D
:100E8000242F30E0B9016F5F7F4FFB01EE0FFF1F92
:100E90006E0F7F1FFB01EA57FF4F51E05083F901AE
:100EA000EE0FFF1F2E0F3F1FF901EA57FF4F9583EB
:100EB00084834F5F4F70409387008091860080311C
:100EC00018F48F5F809386008AD990937200809384
:100ED0007100E0917400F0E0EE0FFF1FE158FF4F4A
:100EE000808191819093700080936F0083E0809364
:100EF00075001092730080916C00DF91CF9108957E
:100F000080918500882361F08091BD0080FFFDC045
:100F100080917400823009F0F8C081E08093730002
:100F2000C0917100D09172005AD98C1B9D0B2091F9
:100F30006F00309170008217930708F476CF80918C
:100F4000740090916C00911107C120916D00309157
:100F50006E002F3F9FEF390761F0A9014427507CB5
:100F6000452B09F41AC18FEF9FEF90936E00809389
:100F70006D008FB58F738FBD32D940918700242FBC
:100F800030E0B9016F5F7F4FFB01EE0FFF1F6E0F67
:100F90007F1FFB01EA57FF4F1082F901EE0FFF1F81
:100FA0002E0F3F1FF901EA57FF4F958384834F5F50
:100FB0004F704093870080918600803118F48F5FD6
:100FC000809386000CD99093720080937100809179
:100FD0007F00909180009093700080936F0084E078
:100FE0008093750080916C0022CF8091BD0080FFBE
:100FF00005C080917400823009F4C7C08091BD00A3
:1010000081FF05C080917400813009F4C2C0C09195
:101010007100D0917200E3D88C1B9D0B20916F0062
:10102000309170008217930708F4FFCEE0917300AF
:10103000E0937400E11198C01092750080916C00EB
:10104000F6CE8091BD0080FFF0CE8FB58F738064A7
:101050008FBDC5D840918700242F30E0B9016F5F64
:101060007F4FFB01EE0FFF1F6E0F7F1FFB01EA5743
:10107000FF4F51E05083F901EE0FFF1F2E0F3F1F6E
:10108000F901EA57FF4F958384834F5F4F70409378
:10109000870080918600803118F48F5F80938600EE
:1010A00086E08093750080916C00C1CE8091BD0078
:1010B00080FDBBCE8FB58F738FBD91D840918700D7
:1010C000242F30E0B9016F5F7F4FFB01EE0FFF1F50
:1010D0006E0F7F1FFB01EA57FF4F1082F901EE0FE1
:1010E000FF1F2E0F3F1FF901EA57FF4F958384839F
:1010F0004F5F4F704093870080918600803108F0E9
:1011000091CE8F5F809386008DCE8091BD0081FF50
:1011100007CF80917400813009F002CF82E0809384
:101120007300FECE91E09093740092E0909375006E
:101130007ECEC0917100D091720051D88C1B9D0B56
:1011400020917F00309180008217930708F481CEB0
:1011500081E080936C007FCE10926C0090E09093C1
:101160006E0080936D0005CFF0E0EE0FFF1FE15899
:10117000FF4F808191819093700080936F0082E097
:101180008093750080916C0052CE81E08093730053
:101190003ECF82E0809373003ACF220F331F220F9D
:1011A000331F282B30936E0020936D00E2CE60E059
:1011B00085E991E0E7DD91E0811101C090E0909335
:1011C000BC0060E476E083E991E0E4DD9093C30045
:1011D0008093C20067E089E790E0D4DD8093BB0094
:1011E00008956091BC0085E991E0FBD16091C20057
:1011F0007091C30083E991E005D26091BB0089E75B
:1012000090E0EFC10F931F93CF93DF938091BC00C9
:1012100081114EC080918600882309F445C08091D9
:10122000880090E0EC012196FE01EE0FFF1FEC0F0D
:10123000FD1FEA57FF4F2081222329F020917800DB
:10124000222309F453C0FC01EE0FFF1F8E0F9F1FD6
:10125000FC01EA57FF4F04811581C1D7801B910B18
:101260002091C2003091C30082179307E8F0CE01AD
:10127000880F991FC80FD91FCA57DF4F8881811166
:101280003EC080917800823009F441C08FB58F7CD8
:101290008FBD809188008F5F8F70809388008091D0
:1012A000860081508093860080917800833029F0F9
:1012B000DF91CF911F910F9108952091BB008091F4
:1012C0007F0090918000289FE001299FD00D11247C
:1012D000009176001091770082D7801B910B8C17BC
:1012E0009D0730F310927800C098E2CF81E08093A0
:1012F0007800C09A809178008330D1F6DECF82E00A
:10130000809378008FB58F7C80618FBDC2CF83E0E2
:101310008093780064D79093770080937600B6CF5F
:101320008FB58F7C8FBDC0981092780008958FE1A3
:1013300083BD8CE085BD80E889BF85B78F7885BF88
:1013400085B7806885BF789408950F931F93CF93D6
:10135000DF938C0144D7EC01889541D78C1B9D0B02
:1013600080179107C8F3DF91CF911F910F910895D6
:1013700068E572E086E991E00DDD9093C10080930D
:10138000C0009C01220F331F40E050E060E072E19A
:101390008AE790E0DCD0832F99278BBD2ABD89BDD9
:1013A00028BD1FBC89E08EBD08956091C00070917A
:1013B000C10086E991E026C19093C1008093C000EE
:1013C0009C01220F331F40E050E060E072E18AE7A9
:1013D00090E0BDD0832F99278BBD2ABD89BD28BD44
:1013E0000895CF92DF92EF92FF92CF93DF93EB01BC
:1013F000880F991F9C0140E050E0C12C62E1D62E7D
:101400006AE7E62EF12CC701B601A1D0832F9927F8
:101410008BBD2ABD8FB58F7380648FBDCE0195DFE4
:101420008FB58F738FBD2091C0003091C100220F06
:10143000331F40E050E0C701B60189D0832F9927C0
:101440008BBD2ABDDF91CF91FF90EF90DF90CF90C1
:10145000089568E171E080EB94E0C3CF60E971E04A
:1014600080E991E0BECF87E087BB14BA15BA11BA04
:1014700083EE82BB7DDF5BDFEBD958DB99DC97DE47
:10148000D1E012E0BEDCC0917D0080917C00C823D9
:10149000E1F48091BA00882369F08091BD0080FD5D
:1014A00008C08091BE00811119C08091BD0081FFEC
:1014B00015C05CDCA7DE10927D008895A2DCC0918F
:1014C0007D0080917C00C82321F32ADFC034D1F055
:1014D000C038A1F0C03221F06BDCEDCF65DBEACF84
:1014E0008091BA0081111CC01093B9001092C50000
:1014F0001092C400D093BA005BDCDDCF37DC85D816
:1015000057DCD9CF8091BA0081110AC0D093B900BD
:101510001092C5001092C400D093BA0049DCCBCF22
:1015200025DC46DCC8CFAA1BBB1B51E107C0AA1FA4
:10153000BB1FA617B70710F0A61BB70B881F991F74
:101540005A95A9F780959095BC01CD010895A1E227
:101550001A2EAA1BBB1BFD010DC0AA1FBB1FEE1F2D
:10156000FF1FA217B307E407F50720F0A21BB30B78
:10157000E40BF50B661F771F881F991F1A9469F7F4
:1015800060957095809590959B01AC01BD01CF0150
:101590000895A29FB001B39FC001A39F01D0B29F45
:1015A000700D811D1124911D0895E199FECF9FBBFF
:1015B0008EBBE09A99278DB30895A8E1B0E042E090
:1015C00050E026C0DC01A40FB51F4150504040F050
:1015D000CB01840F951F2E9105D041505040D8F774
:1015E0000895262FE199FECF9FBB8EBBE09A01970D
:1015F0000DB2021631F02DBB0FB6F894E29AE19AC3
:101600000FBE08950196272FEDDFEBCFDC01CB0154
:10161000FC01E199FECF06C0FFBBEEBBE09A31961C
:101620000DB20D9241505040B8F70895F894FFCF95
:0416300000000000B6
:00000001FF
