:10000000FFC00EC10DC114C10BC10AC109C108C195
:1000100007C106C105C104C103C102C101C100C1BC
:10002000FFC0FEC0FDC04EC552C556C55AC55EC50F
:1000300062C53EC542C564C5B5C7BCC7D2C72CC7DB
:100040009BC74EC81EC8022500A50500000000B5CC
:100050000104250000F000F000F0ED0102050006AB
:1000600000000000001F03020500950000000000D2
:1000700019030205006900000000001403030A00D0
:10008000A505AA0100001203030A00A5056A0100E4
:10009000001003020A00AA0100000000EA02020A9E
:1000A000006A0100000000E802022A00A505000025
:1000B0000000A501032A0000F000F00000DF0103AA
:1000C00015001A00250000007F010315001A000129
:1000D0000000007901021500260000000000650103
:1000E000020200A50500000000940104020000F0D7
:1000F00000F000F000020302000A0025000000DA10
:10010000010302000A0001000000D401025600A50C
:1001100005000000002503021A00A50500000000EC
:100120008401031A0000F000F000006C012D560954
:100130002F590230AA0231AA01326A01335A01341E
:10014000560135550136550237950238A50239A9B1
:10015000023FA50541060042950043990044250051
:100160004501004659004729004855004905004A05
:100170006A004B26004C65004D0A004E09004F2ACC
:100180000050690051A60052190053150054020096
:10019000551600565600571A00589600599A005A9C
:1001A000A500610600629500639900642500650161
:1001B000006659006729006855006905006A6A00F1
:1001C0006B26006C65006D0A006E09006F2A0070D6
:1001D000690071A60072190073150074020075168B
:1001E00000765600771A00789600799A007AA50072
:1001F0005633383138206279204446355743000061
:1002000011241FBECFE5D4E0DEBFCDBF20E0A4E6C1
:10021000B0E001C01D92A93CB207E1F73ED93CCA4B
:10022000EFCEF89480917C0090917D0078940895B1
:100230006F937F938F939F936FB76F9380917C00A1
:1002400090917D00019680937C0090937D00682FB3
:100250006370A1F560B360958091C200882319F0A6
:1002600061FB660F60F96370862F7091C10067278C
:100270008093BF006093C10060B3882770916000D5
:10028000661F77957093600009F480687091610033
:10029000661F77957093610009F480647091620025
:1002A000661F77957093620009F48062682F7091E1
:1002B0007E00672760937F0080937E006F916FBF01
:1002C0009F918F917F916F91189581E08093C000ED
:1002D0001092C20080E008959C0133272C50310910
:1002E0002D31310510F082E0089523D318D380E03A
:1002F000089581E08093C20012D380E008951092A7
:10030000C2000DD380E00895809182009091830017
:10031000880F991F880F991F32D88091800062E062
:1003200090E0F3D380E00895809182009091830063
:10033000880F991F880F991F22D863E08091C3000E
:100340009091C400E2D380E0089580918200909162
:100350008300880F991F880F991F11D88091BD00C5
:1003600062E090E0D2D380E00895CF93DF93C09114
:10037000C500D091C6008091820090918300880FC3
:10038000991F880F991FFBD79E01A8EEB3E037D9BC
:1003900020EA3FE040E050E0F4D863E0C901B5D383
:1003A00080E0DF91CF91089581E08093BE0033D744
:1003B00080E008951092BE002ED780E008959C0141
:1003C0003327255031092B30310510F082E0089594
:1003D0008093BD0020D780E008959C01225331090D
:1003E0002F35314010F082E00895880F991F880F53
:1003F000991F9093C6008093C5000DD780E00895A3
:100400009C01245F31402D32314010F082E008958C
:10041000EDD7E5D780E008955F926F927F928F923B
:100420009F92AF92BF92CF92DF92EF92FF920F9383
:100430001F93CF93DF93CDB7DEB7C85CD1090FB65A
:10044000F894DEBF0FBECDBF582ECE0101965C01E1
:1004500088ECD5011D928A95E9F7E3DE6C01DED4C4
:10046000812C912CF12CEE24E39480917E00803835
:1004700079F5D7DE8C199D0980349F4108F09DC025
:100480008895F5D480918800882379F390918A002B
:10049000092F10E00F5F1F4F9801220F331F020F2B
:1004A000131F08571F4FEE2059F1F8012081222316
:1004B00021F0F22E81809280E12C9F5F9F709093BB
:1004C0008A0081508093880080917E00803889F274
:1004D00082E0C853DF4F0FB6F894DEBF0FBECDBF2A
:1004E000DF91CF911F910F91FF90EF90DF90CF9010
:1004F000BF90AF909F908F907F906F905F90089586
:10050000D8012C912F15C9F28CDE6C01609084000B
:100510007090850086DE9301369527952819390954
:10052000820F931FB30119D8462F6623D9F1693082
:1005300008F041C0862F90E00197880F991F8F29FE
:1005400029813A812C38F1E03F07C8F0C1CF82956C
:10055000807F9081892B80832F5F3F4F461B01F165
:10056000642F493008F068E0862F90E00197880FEB
:10057000991F8F292C3891E0390709F4A9CFF90187
:10058000F695E795A3E0B0E0AC0FBD1FEA0FFB1FA7
:1005900020FDDDCF8F7080832F5F3F4F461B01F71B
:1005A0003A832983F801F0808180928090918A00BB
:1005B0008091880082CF68E0BDCF30D489819A8154
:1005C000892B09F485CFB501852DFBD280E081CF41
:1005D00082E022CF81E020CF8093BB001092C80040
:1005E0001092C70081E08093BC0008C080917E001B
:1005F000803851F48091BF00811106C088950AD3DC
:100600008091BC008111F2CFE7D38091820090915C
:100610008300880F991F880F991FB1D680E0089535
:1006200082E0DACF81E0D8CF1092810010D480E050
:10063000089582E0809381000AD480E0089581E0EB
:100640008093810004D480E00895CF93DF9380915C
:10065000820090918300880F991F880F991F8FD671
:10066000C0EFD1E007C097D1B2D180917E00219632
:1006700087FF14C0FE0184918823A1F0803299F78E
:100680008091820090918300880F991F880F991F95
:1006900076D680917E00219687FDECCF82E0DF91B7
:1006A000CF9108958091820090918300880F991FC7
:1006B000880F991F64D680E0DF91CF9108952F9223
:1006C0003F924F925F926F927F928F929F92AF92E2
:1006D000BF92CF92DF92EF92FF920F931F93CF932F
:1006E000DF93CDB7DEB72A970FB6F894DEBF0FBE03
:1006F000CDBF94D380917E00803809F097C080915F
:10070000C000811193C010E0BBE02B2E0AC0889579
:1007100080917E00803809F087C08091C0008111EF
:1007200083C0A5D3882399F344244394410E94D3E2
:10073000212F30E0F901EE0FFF1F41E050E04C0F98
:100740005D1FE40FF51F91838083442009F487C067
:1007500056E4852E50E0952E69015FEFC51AD50A43
:10076000CC0CDD1C81E090E08C0F9D1FC80ED91EC3
:10077000612C712C72E0372EA12CB12CF401549015
:100780005414C8F17401FFEFEF1AFF0A8E010F5FD6
:100790001F4F09C02817390771F542E0E40EF11C1C
:1007A0000C151D0519F1F70125913491F80181917E
:1007B00091918F012115F0EF3F0761F7B0D187FDCF
:1007C0001AC09501220F331FAA0CBB1CAA0CBB1C1C
:1007D000AA0CBB1CA20EB31EA80EB11C87FDBA94B6
:1007E00042E0E40EF11C0C151D05E9F6451409F470
:1007F00054C033243394FFEF6F1A7F0A4BE0840E0A
:10080000911C55E16516710409F0B8CF832D88233A
:1008100041F1813009F44EC03BD610E088958091BB
:100820007E00803809F479CF11111EC02A960FB6C8
:10083000F894DEBF0FBECDBFDF91CF911F910F9116
:10084000FF90EF90DF90CF90BF90AF909F908F90F0
:100850007F906F905F904F903F902F90089510E0A1
:1008600056CF11D610E053CF2A960FB6F894DEBFBC
:100870000FBECDBFDF91CF911F910F91FF90EF90F1
:10088000DF90CF90BF90AF909F908F907F906F90B0
:100890005F904F903F902F90FBC5269CF001279CC6
:1008A000F00D1124E15BFF4F25913491C501F90151
:1008B0000995ADCF142D2BCF64E181E090E098D263
:1008C00080938000682F70E080EC92E146D67093B0
:1008D000850060938400CB01880F991F860F971FB6
:1008E00090938700809386007093830060938200CA
:1008F0008AE090E044D58091BF0081FF05C081E08F
:100900008093C0001092C20060E080E090E070D25E
:1009100091E0811101C090E09093C2000895609130
:10092000800081E090E093D66091C20080E090E08A
:100930008EC680938000682F70E080EC92E10DD627
:10094000E2E8F0E073836283CB01880F991F860F82
:10095000971F958384837183608308954EE251E0ED
:1009600020E030E007C02F5F3F4F4D5F5F4F2134E5
:10097000310579F0FA01659174916817790799F753
:10098000F901EE0FFF1FE20FF31FE35DFE4F8491AD
:1009900008958FEF0895EDE2F1E020E030E006C029
:1009A0002F5F3F4F33962134310571F094919813A6
:1009B000F7CFF901EE0FFF1FE20FF31FE25DFE4FCD
:1009C00025913491C901089580E090E00895CF9376
:1009D000DF93EC01892BD1F42BC0029789F48FB5FA
:1009E0008F7380648FBD8091860090918700C7D4FB
:1009F0008FB58F738FBD8091820090918300BFD49B
:100A0000CC0FDD1FCC0FDD1F209791F0CE0184E0CD
:100A1000989F812D9927112481309105F1F68FB58A
:100A20008F7380648FBD8091840090918500DFCFAB
:100A30008091820090918300880F991FDF91CF9160
:100A40009EC4CF93DF93EC01623070F04FEF460FFE
:100A50009C01ADECBCECD3D5642F9695879596950B
:100A6000879596958795EDDF9E01ADECBCECC7D5DB
:100A70009695879596958795969587959C01220FD3
:100A8000331F880F991F880F991F880F991F820F96
:100A9000931FFE01E81BF90B3197E930F10528F0AF
:100AA0008AEA92E0DF91CF9192CFED5EFF4F0994F9
:100AB00085E992E0DF91CF918ACF85EA92E0DF91DC
:100AC000CF9185CF8AEA91E0DF91CF9180CF8AE6FE
:100AD00091E0DF91CF917BCF8AE591E0DF91CF91DB
:100AE00076CF86E591E0DF91CF9171CF85E591E0FA
:100AF000DF91CF916CCF85E592E0DF91CF9167CF09
:100B000089EA92E0DF91CF9162CF9BDF80918200F2
:100B100090918300880F991F880F991F30C48A3ADB
:100B200021E09207B9F170F0853A22E0920781F155
:100B3000B8F4853522E0920701F18539924021F51C
:100B400087E00895863521E0920701F1C0F08A35EB
:100B500021E0920771F08A369140B1F482E0089565
:100B6000893A22E0920739F08A3A924069F480E0AB
:100B7000089583E0089589E0089586E00895853515
:100B8000914011F485E008958FEF089584E0089571
:100B900088E0089581E00895CF93DF9360E070E0EE
:100BA00082E090E02DD1C8E6D0E09983888360E0B0
:100BB00070E08AEC90E024D19B838A83DF91CF910F
:100BC00008950F931F93CF93DF938B01C82FD0E02D
:100BD0002197FB01408151814F5F5F4F56954795AB
:100BE0004E5F5F4F88EC8C9FB0018D9F700D11247C
:100BF0006E5F7F4FC8011CD5CC0FDD1FC859DF4F7A
:100C0000F8018081918199838883DF91CF911F9131
:100C10000F910895CF93DF938091BC008230A1F1B2
:100C20008330F1F0813019F0DF91CF910895209158
:100C3000BB0030E0215031094091C7005091C800FD
:100C4000F901EE0FFF1FE859FF4F8081918148178E
:100C5000590708F454C01092BC00DF91CF91089559
:100C6000C0916400D0916500DCDA8C1B9D0B209153
:100C700066003091670082179307B0F281E080939D
:100C8000BC00DF91CF910895C0916400D0916500C0
:100C9000C8DA8C1B9D0B209166003091670082178B
:100CA000930710F2BEDA40918900242F30E0B90199
:100CB0006F5F7F4FFB01EE0FFF1F6E0F7F1FFB016A
:100CC000E857FF4F1082F901EE0FFF1F2E0F3F1F55
:100CD000F901E857FF4F958384834F5F4F7040932E
:100CE000890080918800803118F48F5F809388009C
:100CF0008FB58F738FBD81E08093BC0095CF68EC7A
:100D0000629FC001639F900D11248C5F9F4F569589
:100D1000479562E2840F951F6BD02091C7003091F8
:100D2000C800C82F20FD26C0CF702F5F3F4F3093E3
:100D3000C8002093C7002C2F269530E02F5F3F4F2F
:100D40004091840050918500249FC001259F900D03
:100D5000349F900D1124909367008093660061DAB0
:100D60009093650080936400C0FD07C083E080938A
:100D7000BC005ACFC295CF70D8CF53DA40918900CA
:100D8000242F30E0B9016F5F7F4FFB01EE0FFF1F93
:100D90006E0F7F1FFB01E857FF4F51E05083F901B1
:100DA000EE0FFF1F2E0F3F1FF901E857FF4F9583EE
:100DB00084834F5F4F704093890080918800803119
:100DC00018F48F5F809388008FB58F7380648FBD18
:100DD00082E08093BC0028CF1092BB001092C80024
:100DE0001092C7001092BC008FB58F738FBD08950D
:100DF000CF93C62F10D48F3F09F48C2FCF91089535
:100E0000CF93DF93D62FC72F0ED48F3F2FEF9207AC
:100E100011F48D2F9C2FDF91CF91089562E082E92C
:100E200091E0E6DF809381001092880010928900A3
:100E300010928A008091C000811185E08093760035
:100E400010926E0010926D0010926C0008956091E7
:100E5000810082E991E0FBC380916D0090916E006A
:100E600010926E0010926D0010926C0008950F9316
:100E70001F93CF932091C100C091BF001092C10079
:100E8000E09176008E2F90E08730910508F06EC0DB
:100E9000FC01E45EFF4F099480918100813009F4E8
:100EA0007AC1823009F484C10091710010917200FE
:100EB000B8D9801B910B20916F0030917000821780
:100EC000930708F453C08091750090916C009111C4
:100ED0005AC120916D0030916E002F3F9FEF39076E
:100EE00061F0A9014427507C452B09F46AC18FEFBA
:100EF0009FEF90936E0080936D008FB58F738FBDC1
:100F000090D9BC01909372008093710090918900F8
:100F1000292F30E0A9014F5F5F4FFA01EE0FFF1F4D
:100F20004E0F5F1FFA01E857FF4F1082F901EE0FD5
:100F3000FF1F2E0F3F1FF901E857FF4F7583648392
:100F40009F5F9F709093890080918800803118F492
:100F50008F5F8093880080918200909183009093AE
:100F6000700080936F0084E08093760080916C0025
:100F7000CF911F910F91089500917100109172000F
:100F800050D9801B910B20916F0030917000821717
:100F9000930760F3E0917400E0937500E111E4C001
:100FA000109276003ED9909372008093710081E098
:100FB0008093760080916D0090916E00892B09F0EE
:100FC000C0C08091730091E08927809373008823CB
:100FD00009F44FC0C0FFCACF9093750082E08093A0
:100FE00076008FB58F7380648FBD1BD9BC01909341
:100FF00072008093710090918900292F30E0A9013F
:101000004F5F5F4FFA01EE0FFF1F4E0F5F1FFA0198
:10101000E857FF4F81E08083F901EE0FFF1F2E0F8D
:101020003F1FF901E857FF4F758364839F5F9F70EF
:101030009093890080918800803118F48F5F8093AD
:101040008800E0917500F0E0EE0FFF1FEE57FF4FB4
:10105000808191819093700080936F0083E08093F2
:1010600076001092740080916C00CF911F910F91C7
:101070000895C1FF7BCF82E0809375008093760056
:10108000B0CFC0FD73CF8FB58F738FBDCAD84091DD
:101090008900242F30E0B9016F5F7F4FFB01EE0F15
:1010A000FF1F6E0F7F1FFB01E857FF4F1082F901F2
:1010B000EE0FFF1F2E0F3F1FF901E857FF4F9583DB
:1010C00084834F5F4F704093890080918800803106
:1010D00018F48F5F8093880085E08093760046CF78
:1010E000C0FF44CF8FB58F7380648FBD9AD8409175
:1010F0008900242F30E0B9016F5F7F4FFB01EE0FB5
:10110000FF1F6E0F7F1FFB01E857FF4F51E0508319
:10111000F901EE0FFF1F2E0F3F1FF901E857FF4F98
:10112000958384834F5F4F7040938900809188003E
:10113000803118F48F5F8093880086E0809376007A
:1011400015CF00917100109172006BD8801B910B2C
:1011500020918200309183008217930708F431CFE9
:1011600081E080936C002DCFF0E0EE0FFF1FEE5773
:10117000FF4F808191819093700080936F0082E097
:10118000809376002ECF10926C0090E090936E00CA
:1011900080936D00B2CE90917500923009F084CEAC
:1011A000C223C0FF81CE80937400809373007CCEF5
:1011B00090917500923079F0C1FF76CE80937400E3
:1011C00073CE220F331F220F331F282B30936E0054
:1011D00020936D0092CEC0FF67CE81E080937400B3
:1011E00063CE60E085E991E003DE91E0811101C00A
:1011F00090E09093BE0060E476E083E991E000DE49
:101200009093C6008093C50067E08AE790E0F0DD28
:101210008093BD0008956091BE0085E991E017D2EA
:101220006091C5007091C60083E991E021D2609180
:10123000BD008AE790E00BC20F931F93CF93DF931B
:101240008091BE0081114EC080918800882309F4EE
:1012500045C080918A0090E0EC012196FE01EE0FDE
:10126000FF1FEC0FFD1FE857FF4F2081222329F0BD
:1012700020917900222309F453C0FC01EE0FFF1FD7
:101280008E0F9F1FFC01E857FF4F04811581C9D7BE
:10129000801B910B2091C5003091C60082179307E7
:1012A000E8F0CE01880F991FC80FD91FC857DF4F2C
:1012B000888181113EC080917900823009F441C05B
:1012C0008FB58F7C8FBD80918A008F5F8F708093E8
:1012D0008A008091880081508093880080917900F5
:1012E000833029F0DF91CF911F910F9108952091C4
:1012F000BD008091820090918300289FE001299F8A
:10130000D00D112400917700109178008AD7801BAE
:10131000910B8C179D0730F310927900C098E2CFA3
:1013200081E080937900C09A809179008330D1F672
:10133000DECF82E0809379008FB58F7C80618FBD96
:10134000C2CF83E0809379006CD79093780080932C
:101350007700B6CF8FB58F7C8FBDC0981092790083
:1013600008958FE183BD8CE085BD80E889BF85B796
:101370008F7885BF85B7806885BF789408950F936F
:101380001F93CF93DF938C014CD7EC01889549D7FD
:101390008C1B9D0B80179107C8F3DF91CF911F9194
:1013A0000F91089568E572E086E991E029DD909358
:1013B000C4008093C3009C01220F331F40E050E023
:1013C00060E072E18AE790E0FED0832F99278BBD21
:1013D0002ABD89BD28BD1FBC89E08EBD08956091DE
:1013E000C3007091C40086E991E042C19093C400AB
:1013F0008093C3009C01220F331F40E050E060E067
:1014000072E18AE790E0DFD0832F99278BBD2ABD58
:1014100089BD28BD0895CF92DF92EF92FF92CF93BE
:10142000DF93EB01880F991F9C0140E050E0C12C35
:1014300062E1D62E6AE7E62EF12CC701B601C3D0D1
:10144000832F99278BBD2ABD8FB58F7380648FBD85
:10145000CE0195DF8FB58F738FBD2091C300309182
:10146000C400220F331F40E050E0C701B601ABD0EB
:10147000832F99278BBD2ABDDF91CF91FF90EF90ED
:10148000DF90CF90089568E171E080EB94E0C3CFE6
:1014900060E971E080E991E0BECF87E087BB14BAD4
:1014A00015BA11BA83EE82BB7DDF5BDF05DA74DB30
:1014B000B5DC97DED1E012E0DADCC0917F008091EC
:1014C0007E00C823E1F48091BC00882369F08091FC
:1014D000BF0080FD08C08091C000811119C08091BB
:1014E000BF0081FF15C078DCA7DE10927F008895D1
:1014F000BEDCC0917F0080917E00C82321F32ADFEB
:10150000C034D1F0C038A1F0C03221F087DCEDCF7B
:1015100081DBEACF8091BC0081111CC01093BB001D
:101520001092C8001092C700D093BC0077DCDDCFCA
:1015300053DCC5D873DCD9CF8091BC0081110AC0BF
:10154000D093BB001092C8001092C700D093BC008B
:1015500065DCCBCF41DC62DCC8CFAA1BBB1B51E1F1
:1015600007C0AA1FBB1FA617B70710F0A61BB70B13
:10157000881F991F5A95A9F780959095BC01CD01B8
:101580000895A1E21A2EAA1BBB1BFD010DC0AA1FC4
:10159000BB1FEE1FFF1FA217B307E407F50720F0DC
:1015A000A21BB30BE40BF50B661F771F881F991F57
:1015B0001A9469F760957095809590959B01AC01A0
:1015C000BD01CF010895052E97FB16F400940FD0AE
:1015D00057FD05D0D6DF07FC02D046F408C0509571
:1015E0004095309521953F4F4F4F5F4F089590950F
:1015F0008095709561957F4F8F4F9F4F0895A29F63
:10160000B001B39FC001A39F01D0B29F700D811D97
:101610001124911D0895E199FECF9FBB8EBBE09AE6
:1016200099278DB30895A8E1B0E042E050E026C0CC
:10163000DC01A40FB51F4150504040F0CB01840F96
:10164000951F2E9105D041505040D8F70895262F70
:10165000E199FECF9FBB8EBBE09A01970DB20216B7
:1016600031F02DBB0FB6F894E29AE19A0FBE0895BF
:101670000196272FEDDFEBCFDC01CB01FC01E199D7
:10168000FECF06C0FFBBEEBBE09A31960DB20D92C5
:0C16900041505040B8F70895F894FFCF87
:04169C00000000004A
:00000001FF
